:020000040800F2
:10000000F0060020E51C0008FF01000801020008BE
:1000100003020008050200080702000800000000B3
:1000200000000000000000000000000009020008BD
:100030000B020008000000000D0200081B0C000865
:10004000FF1C0008FF1C0008FF1C0008FF1C000824
:10005000FF1C0008FF1C0008FF1C0008FF1C000814
:10006000FF1C0008FF1C0008FF1C0008FF1C000804
:10007000FF1C0008FF1C0008FF1C0008FF1C0008F4
:10008000FF1C0008FF1C0008FF1C0008FF1C0008E4
:10009000FF1C0008FF1C0008FF1C0008FF1C0008D4
:1000A000FF1C0008FF1C0008FF1C0008FF1C0008C4
:1000B000FF1C0008FF1C0008FF1C0008FF1C0008B4
:1000C000FF1C0008FF1C0008FF1C0008FF1C0008A4
:1000D000FF1C0008FF1C0008FF1C0008FF1C000894
:1000E000FF1C0008FF1C0008FF1C000800000000A7
:1000F0000000000000000000000000000000000000
:100100000000000000000000FF1C0008FF1C0008A9
:10011000FF1C0008FF1C0008FF1C0008FF1C000853
:10012000FF1C0008FF1C0008FF1C0008FF1C000843
:10013000FF1C0008FF1C0008FF1C0008FF1C000833
:10014000FF1C0008FF1C0008FF1C0008FF1C000823
:1001500000F002F800F044F80AA090E8000C824495
:100160008344AAF10107DA4501D100F039F8AFF272
:10017000090EBAE80F0013F0010F18BFFB1A43F085
:1001800001031847F821000018220000103A24BF8C
:1001900078C878C1FAD8520724BF30C830C144BFEC
:1001A00004680C607047000000230024002500262E
:1001B000103A28BF78C1FBD8520728BF30C148BFCA
:1001C0000B607047642901F01786732901F0F586EA
:1001D000002070471FB501F053FF1FBD10B510BDC3
:1001E00001F01AFF1146FFF7F5FF00F057F801F094
:1001F00038FF03B4FFF7F2FF03BC00F099FE70472D
:10020000FEE7FEE7FEE7FEE7704770477047000035
:100210000020654908607047634901200860704705
:1002200070B500F0C7FD0028FBD001245F49604D88
:10023000012814D00026022820D00E70002000F0E3
:1002400026FD012000F023FD5AA000F079FA62A0FB
:1002500000F076FABDE8704068A000F071BA0220A4
:1002600008706FA000F06CFAC5F89C41002000F007
:1002700004FDBDE87040012000F009BD0C706FA0C6
:1002800000F05EFA74A000F05BFA002000F0FFFCC2
:10029000012000F0F2FCC5F89C6170BD90B03C22DA
:1002A00072A1684601F0E6FD002000F0CAFC0120C2
:1002B00000F0C7FC022000F0C4FC032000F0C1FCE9
:1002C0003949002008604FF47A7000F082FC4FF446
:1002D0001651012000F0F5FD00F057FA72A000F071
:1002E0002FFA7EA000F02CFA88A000F029FA93A043
:1002F00000F026FA6CA000F023FA9C4800F020FAE7
:100300009A48503000F01CFA0021084600F0FDFC2D
:100310000021012000F0F9FC0021022000F0F5FC92
:100320000021032000F0F1FC204C01E0FFF778FFF2
:1003300020780028FAD08E4D8E4F2E1D207801286F
:1003400004D002280ED0FFF76BFFF7E720212846E4
:1003500001F0BBFB0028F9D03088C1B286A000F0C4
:10036000EFF9EBE7694685A000F0EAF9694687A056
:1003700001F0D8FC384600F023FCDFE70B4A64218B
:100380005068B0FBF1F301FB130151B94FF4FA616E
:10039000B0FBF1F301FB1303054903B10123C1F8DD
:1003A0009031401C506070479C8122420000002028
:1003B000008022420A0D20CDCBB3F6B7A2CBCDBD33
:1003C000D3CAD5A3ACC7EBD6D8D0C2C9E8D6C3B977
:1003D000A4D7F7C4A3CABD000A0D20555345523116
:1003E000B0B4BCFC3AC9E8D6C35253343835CEAAAF
:1003F000BDD3CAD5C4A3CABD000000000A0D205554
:1004000053455232B0B4BCFC3AC9E8D6C352533457
:100410003835CEAAB7A2CBCDC4A3CABD0000000018
:100420000A0D525334383520B7A2CBCDC4A3CABD70
:10043000C9E8D6C3B3C9B9A6000000000A0D5253DB
:1004400034383520BDD3CAD5C4A3CABDC9E8D6C384
:10045000B3C9B9A6000000000A0DB5C8B4FDBDD3EC
:10046000CAD5CAFDBEDD0A0D000000007777772EE1
:1004700061726D6A697368752E636F6D2053544D98
:100480003332C9F1D6DBCFB5C1D0BFAAB7A2B0E530
:10049000205253343835D7DCCFDFCAD5B7A2CAB51E
:1004A000D1E90D0A000000000A0D2D2D2D2D2D2D56
:1004B0002D2D2D2D2D2D2D2D2D2D2D2D2D2D2D2D6C
:1004C0002D2D2D2D2D2D2D2D2D2D2D2D2D2D2D2D5C
:1004D0002D2D2D2D2D2D2D0A200000000A0D202060
:1004E00020202053544D3332C9F1D6DBCFB5C1D0D3
:1004F000BFAAB7A2B0E55253343835D7DCCFDFCA34
:10050000D5B7A2CAB5D1E90A000000000A0D2D2D09
:10051000B0B44B455931B0B4BCFCC9E8D6C3C9F13D
:10052000D6DBBFAAB7A2B0E5C9E8D6C3CEAA52535C
:10053000343835B7A2CBCDB6CB0A00000A0D2D2D2D
:10054000B0B44B455932B0B4BCFCC9E8D6C3C9F10C
:10055000D6DBBFAAB7A2B0E5C9E8D6C3CEAA52532C
:10056000343835BDD3CAD5B6CB0A00009020000878
:100570000044004000879303256300000A0DD5FD69
:10058000D4DAB7A2CBCDCAFDBEDD3A202573000078
:10059000F84A916819B101F8010B916070475168F0
:1005A0000029FBD0084710B5044602E0641CFFF7A1
:1005B000EFFF20780028F9D110BD2DE9FF5F044638
:1005C0000F46EA4614F8010B00286ED0252802D009
:1005D000FFF7DEFFF6E714F8010B0026302802D003
:1005E0002D2802D004E0012600E0022614F8010BB9
:1005F0004FF0000807E008EB880100EB4100A0F194
:10060000300814F8010BA0F130010929F3D96C2846
:1006100001D04C2803D114F8010B46F00406002841
:1006200043D00246612801D3203AD2B24F2A39D0B2
:1006300006DC422A33D0432A2ED0442AC8D135E0E2
:10064000532A0AD0552A31D0582AC1D14FF0100C64
:10065000710702CF442A2CD030E057F8049B0025C4
:1006600000E06D1C19F805000028FAD102E02020F6
:10067000FFF78EFFB00703D428466D1C4045F6D324
:100680004846FFF790FF02E02020FFF781FF284651
:100690006D1C404596D2F7E701CFC0B298E74FF006
:1006A000020CD5E74FF0080CD2E747E04FF00A0CF8
:1006B000CEE7002902DA494246F0080600250A463C
:1006C000B1FBFCF10CFB1122D2B2092A04D9782823
:1006D00014D007231A44D2B230320AF80520534608
:1006E0006D1C09B1102DEAD3300702D52D215955C3
:1006F0006D1CA946F00703D0302002E02723E9E76C
:100700002020834602E05846FFF742FFB00704D49A
:10071000494609F101094145F5D356466D1E705D04
:10072000FFF736FF002DF9D102E02020FFF730FF60
:10073000494609F101094145ACD2F6E7BDE8FF9F02
:100740000FB410B503A90298FFF737FF10BC5DF88E
:1007500014FB10B5884C2021204601F0B6F9002882
:10076000F9D08548001D0088C0B210BD70B5824C1C
:1007700005460146204601F047F94021204601F098
:10078000A4F90028F9D0284670BD1FB54FF4E13018
:1007900000900020ADF80400ADF80600ADF80800A8
:1007A000ADF80C000C20ADF80A006946002000F0FE
:1007B00035FBAFF247016F484160AFF26901C1609C
:1007C0006EA170A0FFF7BCFF7B48FFF7B9FF7B4924
:1007D0007BA0FFF7B5FF00230522032179A0FFF7D7
:1007E000AFFF8848018888A0FFF7AAFF01F020FA30
:1007F0009348016893A0FFF7A3FF1FBD70B59D4C00
:1008000005460146204601F0FFF84021204601F050
:100810005CF90028F9D0284670BD70B5554E0C46DD
:100820007568706002E0641CFFF7B2FE2078002853
:10083000F9D1756070BD0FB410B54E4C04A9A0601D
:100840000398FFF7BAFEA16800200870A0607DE75A
:100850000FB470B5474C06A9656860600598FFF74E
:10086000ACFE656070BC5DF814FB2DE9F0410546F7
:1008700014461F4680A0FFF763FF012F04D0022F0C
:100880001DD0042F29D122E02E46002504E0715D01
:100890007BA0FFF755FF6D1CA542F8DB2020FFF77A
:1008A00077FE002508E0705DA0F120015E2900D9E7
:1008B0002E20FFF76DFE6D1CA542F4DB0DE035F830
:1008C000021B71A0FFF73CFF641EF8D105E002CDCA
:1008D0006FA0FFF735FF641EF9D1BDE8F0410A2093
:1008E00056E610B5634C2021204601F0EEF80028B2
:1008F000F9D06048001D0088C0B210BD2DE9F0415C
:100900001C4F0646F868002820D000244FF0080845
:100910004D1EF8688047002818D00D2810D00828F0
:1009200009D02028F5DBAC42F3DAC0B23055641CA4
:10093000FFF72EFEEDE7002CEBD0641E4046F7E7F4
:10094000002030550A20FFF723FE0120BDE8F0818A
:1009500010B52021474801F0B8F8002800D0012048
:1009600010BD10B52021044801F0AFF8002800D0D8
:10097000012010BD080000200038014055534152AD
:10098000543100000D0A0A0A0D205757572E4152C4
:100990004D4A495348552E434F4D2020257320780A
:1009A0007072696E746620636F6E666967757265D2
:1009B000642E2E2E2E00000024210008DC210008C9
:1009C00025730000205757572E41524D4A4953482E
:1009D000552E434F4D20757365205F5F53544D3343
:1009E00032463130585F5354445045524950485F65
:1009F00056455253494F4E2025642E25642E2564BA
:100A000000000000E0F7FF1F0A0D20B2FAC6B7C4CD
:100A1000DAB2BF466C617368B4F3D0A1CEAAA3BAB0
:100A200025644BD7D6BDDAA3A12009207777772E8E
:100A300061726D6A697368752E636F6D00000000E6
:100A40006C0000200A0D20CFB5CDB3C4DABACBCAF2
:100A5000B1D6D3C6B5C2CA2853797374656D436FD6
:100A60007265436C6F636B29CEAAA3BA2564487A7A
:100A70002E0A0D00004400402530386C582000003C
:100A80002025303258000000202530345800000066
:100A9000202530384C5800002DE9F04105460F461E
:100AA000FFF756FF28B3FFF71CFF0026434C0D2825
:100AB00006D008280FD02168B9421BD3266022E057
:100AC0000A20FFF79BFE0D20FFF798FE20682E54AA
:100AD000012026603AE7206858B10820FFF78EFE13
:100AE0002020FFF78BFE0820FFF788FE2068401EBD
:100AF000206008E0A0F120025E2A04D86854491C56
:100B00002160FFF77BFE002020E770B52B4C0B46E1
:100B10001146E568E0601846FFF7F0FEE56070BD3D
:100B200030B500250D60036801E05B1C03601A7896
:100B3000202AFAD02D2A03D101255A1C02605A78A6
:100B4000302A06D0A2F130030A2B29D20A2400232E
:100B50002EE003685B1C03601A78622A07D0782AAB
:100B600003D0202A08D8012030BD102400E0022440
:100B70005B1C03601A78EAE7A2F130030A2B0FD25C
:100B80000824E4E7612A01D3203AD2B2303AD2B243
:100B9000112A03D3D21FD2B2092A01D9A24201D30A
:100BA000002030BD03FB04230268521C026012784F
:100BB000202AE7D805B15B420B60D4E7080000208B
:100BC00000E0401E0028FCD170474FF4C06000F0E8
:100BD00051BDEA490968B1FBF0F0B0F1807F0DD258
:100BE00020F07F414FF0E020491E4161E44AF021AE
:100BF000117000218161072101617047FEE7E14921
:100C0000086008680028FCD17047DE4801680029A8
:100C100002D00168491E0160704710B5FFF7F5FF6B
:100C2000BDE81040FFF7AABBD7480168D74801606C
:100C3000D549091D09684160D349083109688160B7
:100C4000704738B50446D248012150F8240000F01E
:100C50007BFBCF486946483830F81400ADF80000F7
:100C600010208DF8030003208DF80200C5482030C5
:100C700050F8240000F021FC38BDC549C14A48396C
:100C8000203231F8101052F8200041617047C049FD
:100C9000BC4A4839203231F8101052F82000016166
:100CA0007047B849203151F82010CA68B84B483B0A
:100CB00033F810004240CA60704708B50121042093
:100CC00000F042FB0820ADF8000010208DF8030072
:100CD00003208DF802006946AE4800F0EEFBAE49F5
:100CE0000120086008BDAC49002008607047AA498F
:100CF000012008607047A949D1F88C0118B1002083
:100D0000C1F88C0170470120FAE77FB50446A0487E
:100D10000D461030012150F8240040F0010000F091
:100D200013FB04208DF80F00994803A9403830F8D0
:100D30001400ADF80C009348303050F8240000F057
:100D4000BCFB012D2BD19248283830F81400C1B2D9
:100D50008F48303830F81400C0B200F062FC8C4884
:100D6000383830F81400009000208DF804000C2072
:100D70008DF805008DF80650684600F0E1FC8448C7
:100D8000203830F814008DF808000F208DF8090085
:100D90008DF80A008DF80B5002A800F070FC7FBDA2
:100DA0007B49784A4039303231F8101052F820002F
:100DB00000F0D9BB7A4BD3F810017A4928B90A461A
:100DC000521EFDD1D3F8100120B17748D0F8282168
:100DD00012B107E0012070470A46521EFDD1D0F83B
:100DE000280118B1D3F8340110B107E00220704790
:100DF0000846401EFDD1D3F8340120B16748D0F831
:100E0000002112B106E003207047491EFDD1D0F841
:100E1000000108B10020704704207047F8B504466F
:100E20000D465B485A491038083950F8240051F8EB
:100E30002410084340F00100012100F085FA544ECF
:100E4000183EC4B30121082000F0C2FB56F824006C
:100E5000012100F082FA18208DF803004C48694601
:100E6000503830F81400ADF8000003208DF802006F
:100E70004448103050F8240000F01FFB04208DF887
:100E80000300434869464C3830F81400ADF80000C0
:100E90003C48183050F8240000F00FFB394E29462A
:100EA000083656F8240000F0E1FC56F82400012131
:100EB00000F054FDF8BDFFE70121306800F044FA6E
:100EC000C9E71FB5044600910021ADF80810ADF840
:100ED00004100C20ADF80610ADF80C10ADF80A00A7
:100EE00069462046FFF79AFF002C1FD02FA131A0A2
:100EF00000F018FF3C4800F015FF25493BA02031C9
:100F000000F010FF00230522032139A000F00AFFA2
:100F10001D480838018846A000F004FF00F088FE54
:100F20001648016850A000F0FDFE1FBD5AA1DEE783
:100F3000704770B55A4D04464021284600F0C5FD63
:100F40000028F9D0E1B2284600F05EFD204670BDD1
:100F50004FF0FF30704710B5514C2021204600F073
:100F6000B4FD0028F9D04E48001D00880549C4B2E0
:100F7000091D204600F07CFF204610BD6C000020BB
:100F800023ED00E018000020E8F7FF1F800000209C
:100F9000BC210008000801408C01214200002142D0
:100FA00000002242F0490200008021425553415284
:100FB000543200000D0A0A0A0D205757572E41528D
:100FC0004D4A495348552E434F4D202025732070DC
:100FD00072696E746620636F6E66696775726564A8
:100FE0002E2E2E2E00000000342300082573000052
:100FF000205757572E41524D4A495348552E434F7B
:101000004D20757365205F5F53544D333246313048
:10101000585F5354445045524950485F56455253C7
:10102000494F4E2025642E25642E256400000000C3
:101030000A0D20B2FAC6B7C4DAB2BF466C61736853
:10104000B4F3D0A1CEAAA3BA25644BD7D6BDDAA3F8
:10105000A12009207777772E61726D6A69736875B0
:101060002E636F6D000000000A0D20CFB5CDB3C414
:10107000DABACBCAB1D6D3C6B5C2CA28537973740B
:10108000656D436F7265436C6F636B29CEAAA3BA1B
:101090002564487A2E0A0D00555341525431000000
:1010A00000440040CC48016841F001010160416802
:1010B000CA4A114041600168C94A11400160016893
:1010C00021F480210160416821F4FE014160016842
:1010D00021F0A05101604FF47F0181600021C162C5
:1010E0007047BD490A6822F480320A600A6822F417
:1010F00080220A60B0F5803F07D0B0F5802F03D181
:10110000086840F4A02008607047086840F4803008
:10111000F9E7034600205909AF4A01290AD00229FC
:101120000AD0516A03F01F02012393400B4200D002
:10113000012070471168F5E7116AF3E730B5002424
:101140004FF4A0653120FFF7E4FF641CAC4201D0EE
:101150000028F7D03120FFF7DCFF002800D0012065
:1011600030BD9D4A116821F0F80141EAC0001060CD
:1011700070479C4908607047974B5A68084322F4AF
:101180007412104358607047964908667047924B36
:1011900010B5DA6A944C084322401043D86210BD5F
:1011A0008D4AD16A21F0F0010143D16270478A4A29
:1011B000D16A21F470610143D16270478949886620
:1011C0007047854AD16A21F470410143D16270476A
:1011D000844908677047804A516821F00301014340
:1011E000516070477C48406800F00C0070477A4AB4
:1011F000516821F0F001014351607047764A51680F
:1012000021F4E061014351607047734A516821F451
:10121000605141EAC000506070476F4A0029517A1E
:1012200001D0014300E08143517270476F4908606B
:101230007047694A516821F4404101435160704749
:101240006B49086070476A49091D08607047694921
:1012500000220A7001F82029012802D0042802D1B6
:10126000052081F8200070476349086070475A499B
:101270000A6A02430A6270475F494439086070474E
:1012800070B5554B59685D4A11F00C0104D05C4CA7
:10129000042903D0082903D0026029E0046027E074
:1012A00059685A6801F47011890C02F480320D29D2
:1012B00001D0891C00E00621BAB1DA6A12F4803F3D
:1012C000DA6A02F00F0202F101020AD0DD6ADE6A78
:1012D000C5F303156D1CB4FBF5F4C6F30326B61C69
:1012E0007443B4FBF2F24A43D6E7464A51430160E5
:1012F0005968454A01F0F0010909545C0168E14070
:1013000041605C6804F4E064240A145D21FA04F48A
:1013100084605C6804F46054E40A125DD140C160EA
:101320005A68394B02F44042920B1B1F9A5CB1FB86
:10133000F2F1016170BD284A0029516901D00143D1
:1013400000E0814351617047234A0029916901D02F
:10135000014300E08143916170471F4A0029D16930
:1013600001D0014300E08143D16170471A4A00294E
:10137000916A01D0014300E0814391627047164AAF
:101380000029D16801D0014300E08143D16070475A
:10139000114A0029116901D0014300E08143116124
:1013A000704715494039086070470E49C864704756
:1013B0000949C87170470848416A41F0807141622B
:1013C0007047054A0146002092680A4200D0012079
:1013D0007047014988727047001002400000FFF01A
:1013E000FFFFF6FE00004242F0FFFEFFD80042423F
:1013F000C4054242201002408004424200127A009A
:1014000040787D0100093D005C0000208F4910B547
:10141000884206D101210420FFF7B1FF00210420FA
:101420003BE08B49884206D101210820FFF7A7FF46
:101430000021082031E08749884206D1012110208F
:10144000FFF79DFF0021102027E08349884206D145
:1014500001212020FFF793FF002120201DE07F497C
:10146000884206D101214020FFF789FF002140205A
:1014700013E07B49884206D101218020FFF77FFFDE
:101480000021802009E0774988420AD18415012192
:101490002046FFF774FF00212046BDE81040FFF70B
:1014A0006EBF10BD10B501210846FFF768FF00218F
:1014B000BDE810400120FFF762BFF0B5CC780022F4
:1014C00004F00F03E40601D58C7823430C884FF019
:1014D0000F0C14F0FF0F4FF0010E1AD005680E88A4
:1014E0000EFA02F42640A6420FD196000CFA06F737
:1014F000BD4303FA06F63543CE78282E02D0482E97
:1015000002D002E0446100E00461521C082AE6D3E4
:1015100005600A88FF2A1DD94568002202F10806E5
:101520000EFA06F40E882640A6420FD196000CFA59
:1015300006F725EA070703FA06F5CE783D43282E7D
:1015400000D14461CE78482E00D10461521C082A93
:10155000E4D34560F0BD4FF6FF7101800221817038
:101560000421C17070470246002092680A4200D0F0
:1015700001207047806880B2704702460020D26820
:101580000A4200D001207047C06880B270470161F4
:101590007047416170470AB101617047416170470E
:1015A000C160704741F480328261816182618169EA
:1015B000806970472C4B10B51A684FF68074224032
:1015C00042EA00100843186010BD2849C8617047FE
:1015D000F0B5254C002801DAE36900E06368420DAC
:1015E000120185B2C0F301579540C0F30346032FA3
:1015F00005D0C2020AD50322B240934307E023F08C
:101600007062636823F07063636002E0AB4343F091
:10161000706201B12A43002801DAE261F0BD626024
:10162000F0BD10B58A0721F003040F49120F2144C1
:101630000F238C6893409C438C608B6890400343DD
:101640008B6010BD0A490860704700000008014027
:10165000000C01400010014000140140001801403E
:10166000001C014000200140000001400000204219
:10167000DC0020422749084327490860704770B5BD
:101680000F24C278017801254FF0E026DAB1224A12
:10169000126802F4E062C2F5E062120AC2F10403C9
:1016A000D44042789A408378234013431A011B4B5D
:1016B000CA54007800F01F018D40400906EB8000FD
:1016C000C0F8005170BD01F01F008540480906EBCD
:1016D0008000C0F8805170BD114A114001430E488E
:1016E000001F016070470C4A121D0029116801D0CB
:1016F000014300E08143116070474FF0E02104286E
:10170000086903D020F004000861704740F004002D
:10171000FAE700000000FA050CED00E000E400E04C
:1017200080FFFF1F374900200860091D0860091D60
:101730000860091D08603349334814310860704758
:1017400030B5304A8379016853B313688B43136013
:10175000111D0B680468A3430B60017911440B68E9
:10176000046823430B60274B083319680468A143BE
:1017700019601C1D21680568A94321604179102961
:1017800005D011440A68006802430A6030BD196838
:10179000026811431960216800680143216030BD6F
:1017A0000079104402688A43026030BD0021016064
:1017B00001710C22427181717047124910310A681F
:1017C00002430A60704701460E4A00201432126834
:1017D0000A4200D0012070470A491431086070475E
:1017E000084A014600201268064B0A4014331B6861
:1017F0000B4202D0002A00D0012070470149143169
:101800000860704700040140FFFF0F00C64910B593
:1018100088420AD101218C032046FFF7B0FD204603
:10182000BDE810400021FFF7AABDC049884202D19F
:1018300001214C0410E0BE49884202D101218C04F0
:101840000AE0BC49884202D10121CC0404E0BA4933
:1018500088420AD101210C052046FFF799FD204658
:10186000BDE810400021FFF793BD10BD30B50D4617
:10187000018A85B004464CF6FF700140E8880843B1
:101880002082A0894EF6F3110840A9882A891143C5
:101890006A8902431143A181A18A4FF6FF400140AA
:1018A000A8890843A0826846FFF7EAFC9E48844264
:1018B00001D1039800E00298A1890904002900EBF6
:1018C000C00101EB0010296802DA4FEA410101E092
:1018D0004FEA8101B0FBF1F06422B0FBF2F14FEA74
:1018E00001114FEA11136FF018056B4300EB8300F1
:1018F000A3891D044FF0320306D503EBC000B0FBF3
:10190000F2F000F0070005E003EB0010B0FBF2F08E
:1019100000F00F000843208105B030BD4FF4165190
:10192000016000218180C18001810C22428181817E
:10193000704710B5028A4FF2FF031A400B884C889B
:1019400023438C88C9880C4323431343038210BD6F
:101950000021018041808180C180704700298189F8
:1019600002D041F4005101E021F40051818170471F
:1019700010B5C1F3421301F01F040121A140012B56
:1019800007D0022B07D01430002A026805D00A4382
:1019900004E00C30F8E71030F6E78A43026010BD2F
:1019A000002A828A01D00A4300E08A43828270477B
:1019B000028A22F00F020282028A0A4302827047E0
:1019C000828922F40062828182890A43828170477F
:1019D0000029818902D041F0020101E021F00201D9
:1019E00081817047028A22F020020282028A0A4321
:1019F000028270470029018A02D041F4804101E04F
:101A000021F4804101827047C1F308018180704751
:101A10008088C0F308007047818941F0010181810D
:101A20007047028BD2B20283028B42EA012101830A
:101A30007047028B02F47F420283028B0A430283C7
:101A400070470029818A02D041F0200101E021F095
:101A50002001818270470029818A02D041F0100163
:101A600001E021F01001818270470029818A02D0B3
:101A700041F0080101E021F008018182704700294E
:101A8000818902D041F4004101E0C1F30E0181815E
:101A900070470029818A02D041F4006101E021F4FD
:101AA000006181827047828A22F004028282828AE7
:101AB0000A43828270470029818A02D041F00201E4
:101AC00001E021F002018182704702460020128865
:101AD0000A4200D001207047C9430180704770B5A9
:101AE00001F01F0601250024C1F3421305FA06F296
:101AF000012B0FD0022B0FD0838A4FEA11210088CF
:101B0000134205FA01F500EA050001D000B10124F5
:101B1000204670BD8389F0E7038AEEE70A0A0121B7
:101B20009140C943018070470038014000440040A3
:101B300000480040004C0040005000405E4900203A
:101B40000A6842F480320A604FF4A0630A6800F128
:101B5000010012F4003F01D19842F7D108688003D8
:101B60003FD55648026842F010020260026822F037
:101B700003020260026842F00202026048684860A4
:101B800048684860486840F480604860C86A4C4AC9
:101B90001040C862C86A4B4A1043C862086840F0E7
:101BA0008060086008680001FCD5486820F47C105B
:101BB0004860486840F4E8104860086840F0807069
:101BC000086008688001FCD5486820F00300486080
:101BD000486840F0020048604868C0F3810002286D
:101BE000FAD17047344810B5016841F00101016035
:101BF0004168354A114041600168344A1140016032
:101C0000016821F480210160416821F4FE014160F6
:101C1000016821F0A05101604FF47F018160002133
:101C2000C162FFF78BFF2A494FF00060086010BDCA
:101C300070B5214B5868274A274910F00C0004D092
:101C4000264C042803D0082803D00A6029E00C6041
:101C500027E058685A6800F47010800C02F4803253
:101C60000D2801D0801C00E00620BAB1DA6A12F417
:101C7000803FDA6A02F00F0202F101020AD0DD6A47
:101C8000DE6AC5F303156D1CB4FBF5F4C6F3032639
:101C9000B61C7443B4FBF2F24243D6E7104A5043F9
:101CA000086058680C4AC0F30310121D105C0A68E3
:101CB000C2400A6070BD00000010024000200240D7
:101CC00000F0FEFF440601000000FFF0FFFFF6FEFB
:101CD00008ED00E000127A006C00002040787D01E1
:101CE00000093D000948804709480047FEE7FEE734
:101CF000FEE7FEE7FEE7FEE7FEE7FEE7FEE7FEE7BC
:101D000004480549054A064B70470000E51B0008DA
:101D100051010008F0000020F0060020F002002031
:101D2000F00200200FB4044910B503AA029800F095
:101D300049F910BC5DF814FB1C0000202DE9F041AE
:101D400004460E4600200AE0E1682046884738B382
:101D5000252806D0D4E901219047206A401C206242
:101D6000F2E7E168204600278847050018D0A5F172
:101D70004100192802D820354FF400673246294621
:101D800020462760FEF71EFA40B1012804D0F61D58
:101D900026F007060836D7E7361DD5E72846D9E7E7
:101DA000206ABDE8F08170B505460C46012A05D0D1
:101DB0002868800600D5EA69002302E0012305E0D7
:101DC0005B1C934202D2E05C0028F9D1A869E618B6
:101DD000C01AA861286A184428622846AFF3008018
:101DE00004E0D5E9012114F8010B9047B442F8D37F
:101DF0002846AFF3008070BD2DE9F041074600256D
:101E000010687529394616A411D0AFF30080002858
:101E100003DAC0F1000013A407E039688A0701D58E
:101E200011A402E0490704D510A4012501E0AFF395
:101E3000008000210A2307F1240607E0B0FBF3F23B
:101E400003FB1200303070541046491C0028F5D1B5
:101E50002B4622463846BDE8F04100F040B800006D
:101E6000000000002D0000002B00000020000000FA
:101E7000FFF75FB810B5203AC0F00B80B1E81850FA
:101E8000203AA0E81850B1E81850A0E81850BFF464
:101E9000F5AF5FEA027C24BFB1E81850A0E8185003
:101EA00044BF18C918C0BDE810405FEA827C24BF57
:101EB00051F8043B40F8043B08BF7047D20728BFE5
:101EC00031F8023B48BF11F8012B28BF20F8023B34
:101ED00048BF00F8012B70477047704770472DE9E5
:101EE000F0470D4604469246994600F124080168E1
:101EF000880604D5E06921F01001216000E001208E
:101F0000A84202DDA0EB050700E00027A16907EB6E
:101F1000050202EB0300A1EB0000A0612068C006EF
:101F200002D42046AFF30080002608E0D4E9012166
:101F30001AF806009047206A401C761C20624E4525
:101F4000F4DB2068C0060AD52046AFF3008006E027
:101F5000D4E9012130209047206A401C2062381EBD
:101F6000A7F10107F4DC07E0D4E9012118F8050026
:101F70009047206A401C2062281EA5F10105F3DC71
:101F80002046AFF300802068000602D50220BDE89D
:101F9000F0870120FBE710B5436913B1AFF3008070
:101FA00001E0FFF700FF012010BD126800F12401DD
:101FB0000A7000224A700122EDE711684FF0FF32EB
:101FC000E9E70000074B70B50C467B4400F011F8C0
:101FD00005462046FEF7BCFF10B14FF0FF3070BD44
:101FE000284670BD65EFFFFF01694A1C0261087851
:101FF000704700B58FB0CDE9013100210591054949
:102000007944CDE9031011466846FFF797FE0FB0FB
:1020100000BD0000E5FFFFFF754600F029F8AE4661
:1020200005006946534620F00700854618B020B5E4
:10203000FFF766FEBDE820404FF000064FF00007B6
:102040004FF000084FF0000B21F00701AC46ACE860
:10205000C009ACE8C009ACE8C009ACE8C0098D46CD
:1020600070470446AFF300802046FEF7C2F8000038
:10207000004870478C000020004870479000002006
:1020800010B5FFF7F9FF4FF00001016010BD00002F
:102090000A0A0D20CCE1CABE3A20B5B1C7B0CFD4F0
:1020A000CABEB5C4B4B0BFDACEAAB4AEBFDA312F5F
:1020B000434F4D312F555341525431A1A3C7EBBD6E
:1020C000ABD7A2D2E24A5033BACD4A5035CCF8B59C
:1020D000BD323C2D3E33B2E0A1A30D0A000000004A
:1020E0000A0A0D20202020202020B4AEBFDA322F93
:1020F000434F4D322F555341525432D7F7CEAA5247
:1021000053343835A3ACC7EBBDABD7A2D2E24A50AB
:1021100034CCF8B5BD313C2D3E32B2E0A1A30D0A5E
:10212000000000000A0D202323232323232323233D
:10213000232323205757572E41524D4A4953485580
:102140002E434F4D212023232323232323232323E3
:10215000232320284A616E20203920323031342058
:102160002D2031313A33313A32302900000220003B
:10217000000440000400080010008000100000046B
:1021800000200100100000040020010002000100F6
:102190000200000004000A000D0000000A002800F0
:1021A00028000600004000000000020004000000BB
:1021B00020000000040000002000000020000000BB
:1021C000200000002000000020000000100000009F
:1021D0000800000010000000040000000D0A20208C
:1021E0005F5F5F5F5F205F5F5F5F5F5F5F205F5F7D
:1021F00020205F5F205F5F5F5F205F5F5F20205F69
:102200005F5F5F5F5F205F5F20205F5F5F0D0A2081
:102210002F205F5F5F5F7C5F5F2020205F5F7C20FF
:10222000205C2F20207C5F5F5F205C5F5F205C7CF8
:1022300020205F5F5F5F2F5F207C2F205F205C0D81
:102240000A7C20285F5F5F202020207C207C2020CB
:102250007C205C20202F207C205F5F29207C20298F
:10226000207C207C5F5F2020207C207C207C207CC8
:10227000207C5F20205F5F0D0A205C5F5F5F205C39
:102280002020207C207C20207C207C5C2F7C207CDB
:102290007C5F5F203C202F202F7C20205F5F7C20F4
:1022A000207C207C207C207C205C205C2F202F0D3B
:1022B0000A205F5F5F5F29207C20207C207C20201B
:1022C0007C207C20207C207C5F5F5F29202F202FBA
:1022D0005F7C207C20202020207C207C207C5F7C58
:1022E000207C3E20203C0D0A7C5F5F5F5F5F2F20DB
:1022F00020207C5F7C20207C5F7C20207C5F7C5FBA
:102300005F5F5F2F5F5F5F5F7C5F7C20202020200E
:102310007C5F7C5C5F5F5F2F2F5F2F5C5F5CC9F130
:10232000D6DBCFB5C1D0BFAAB7A2B0E50D0A0D0A62
:10233000000000000A0D202323232323232323232B
:10234000232323205757572E41524D4A495348556E
:102350002E434F4D212023232323232323232323D1
:10236000232320284A616E20203920323031342046
:102370002D2031313A33313A323329009C23000881
:1023800000000020800000008C0100081C240008D0
:102390008000002070060000A80100080000000076
:1023A000000000000000000000000000000000002D
:1023B00000000000000000000000000000380140A4
:1023C00000440040000801400014014000080140A2
:1023D00000140140001401400014014000140140A9
:1023E0000014014000100140000C014000100140A9
:1023F0000008014002040608000000000102030476
:10240000010203040607080900A24A0400000000B4
:0C24100000000000010203040607080998
:04000005080001519D
:00000001FF
